{
  "contractName": "Election",
  "abi": [
    {
      "constant": true,
      "inputs": [
        {
          "name": "",
          "type": "string"
        }
      ],
      "name": "voted",
      "outputs": [
        {
          "name": "",
          "type": "bool"
        }
      ],
      "payable": false,
      "stateMutability": "view",
      "type": "function"
    },
    {
      "constant": true,
      "inputs": [],
      "name": "candidatesCount",
      "outputs": [
        {
          "name": "",
          "type": "uint256"
        }
      ],
      "payable": false,
      "stateMutability": "view",
      "type": "function"
    },
    {
      "constant": true,
      "inputs": [
        {
          "name": "",
          "type": "uint256"
        }
      ],
      "name": "candidates",
      "outputs": [
        {
          "name": "id",
          "type": "uint256"
        },
        {
          "name": "name",
          "type": "string"
        },
        {
          "name": "voteCount",
          "type": "uint256"
        }
      ],
      "payable": false,
      "stateMutability": "view",
      "type": "function"
    },
    {
      "constant": true,
      "inputs": [],
      "name": "candidate",
      "outputs": [
        {
          "name": "",
          "type": "string"
        }
      ],
      "payable": false,
      "stateMutability": "view",
      "type": "function"
    },
    {
      "constant": true,
      "inputs": [
        {
          "name": "",
          "type": "address"
        }
      ],
      "name": "voters",
      "outputs": [
        {
          "name": "",
          "type": "bool"
        }
      ],
      "payable": false,
      "stateMutability": "view",
      "type": "function"
    },
    {
      "inputs": [],
      "payable": false,
      "stateMutability": "nonpayable",
      "type": "constructor"
    },
    {
      "constant": true,
      "inputs": [
        {
          "name": "_candidateId",
          "type": "uint256"
        }
      ],
      "name": "getCandidate",
      "outputs": [
        {
          "name": "_id",
          "type": "uint256"
        },
        {
          "name": "_name",
          "type": "string"
        },
        {
          "name": "_voteCount",
          "type": "uint256"
        }
      ],
      "payable": false,
      "stateMutability": "view",
      "type": "function"
    },
    {
      "constant": false,
      "inputs": [
        {
          "name": "_candidateId",
          "type": "uint256"
        },
        {
          "name": "_mailId",
          "type": "string"
        }
      ],
      "name": "vote",
      "outputs": [],
      "payable": false,
      "stateMutability": "nonpayable",
      "type": "function"
    },
    {
      "constant": true,
      "inputs": [
        {
          "name": "_mailId",
          "type": "string"
        }
      ],
      "name": "hasVoted",
      "outputs": [
        {
          "name": "_voted",
          "type": "bool"
        }
      ],
      "payable": false,
      "stateMutability": "view",
      "type": "function"
    }
  ],
  "bytecode": "0x608060405234801561001057600080fd5b506100556040518060400160405280601081526020017f53616e64726120416e6e2053616a616e000000000000000000000000000000008152506100e260201b60201c565b6100996040518060400160405280600f81526020017f5564617961205368616e6b6572204d00000000000000000000000000000000008152506100e260201b60201c565b6100dd6040518060400160405280600481526020017f4e4f5441000000000000000000000000000000000000000000000000000000008152506100e260201b60201c565b610203565b60036000815480929190600101919050555060405180606001604052806003548152602001828152602001600081525060026000600354815260200190815260200160002060008201518160000155602082015181600101908051906020019061014d92919061015e565b506040820151816002015590505050565b828054600181600116156101000203166002900490600052602060002090601f016020900481019282601f1061019f57805160ff19168380011785556101cd565b828001600101855582156101cd579182015b828111156101cc5782518255916020019190600101906101b1565b5b5090506101da91906101de565b5090565b61020091905b808211156101fc5760008160009055506001016101e4565b5090565b90565b610b27806102126000396000f3fe608060405234801561001057600080fd5b50600436106100885760003560e01c806335b8e8201161005b57806335b8e820146102f857806339bfeae3146103ad5780636c8381f814610480578063a3ec138d1461050357610088565b8063135a548d1461008d57806324108475146101605780632d35a8a2146102255780633477ee2e14610243575b600080fd5b610146600480360360208110156100a357600080fd5b81019080803590602001906401000000008111156100c057600080fd5b8201836020820111156100d257600080fd5b803590602001918460018302840111640100000000831117156100f457600080fd5b91908080601f016020809104026020016040519081016040528093929190818152602001838380828437600081840152601f19601f82011690508083019250505050505050919291929050505061055f565b604051808215151515815260200191505060405180910390f35b6102236004803603604081101561017657600080fd5b81019080803590602001909291908035906020019064010000000081111561019d57600080fd5b8201836020820111156101af57600080fd5b803590602001918460018302840111640100000000831117156101d157600080fd5b91908080601f016020809104026020016040519081016040528093929190818152602001838380828437600081840152601f19601f820116905080830192505050505050509192919290505050610595565b005b61022d610805565b6040518082815260200191505060405180910390f35b61026f6004803603602081101561025957600080fd5b810190808035906020019092919050505061080b565b6040518084815260200180602001838152602001828103825284818151815260200191508051906020019080838360005b838110156102bb5780820151818401526020810190506102a0565b50505050905090810190601f1680156102e85780820380516001836020036101000a031916815260200191505b5094505050505060405180910390f35b6103246004803603602081101561030e57600080fd5b81019080803590602001909291905050506108cd565b6040518084815260200180602001838152602001828103825284818151815260200191508051906020019080838360005b83811015610370578082015181840152602081019050610355565b50505050905090810190601f16801561039d5780820380516001836020036101000a031916815260200191505b5094505050505060405180910390f35b610466600480360360208110156103c357600080fd5b81019080803590602001906401000000008111156103e057600080fd5b8201836020820111156103f257600080fd5b8035906020019184600183028401116401000000008311171561041457600080fd5b91908080601f016020809104026020016040519081016040528093929190818152602001838380828437600081840152601f19601f8201169050808301925050505050505091929192905050506109bd565b604051808215151515815260200191505060405180910390f35b610488610a3d565b6040518080602001828103825283818151815260200191508051906020019080838360005b838110156104c85780820151818401526020810190506104ad565b50505050905090810190601f1680156104f55780820380516001836020036101000a031916815260200191505b509250505060405180910390f35b6105456004803603602081101561051957600080fd5b81019080803573ffffffffffffffffffffffffffffffffffffffff169060200190929190505050610adb565b604051808215151515815260200191505060405180910390f35b6001818051602081018201805184825260208301602085012081835280955050505050506000915054906101000a900460ff1681565b6001816040518082805190602001908083835b602083106105cb57805182526020820191506020810190506020830392506105a8565b6001836020036101000a038019825116818451168082178552505050505050905001915050908152602001604051809103902060009054906101000a900460ff161561067f576040517f08c379a00000000000000000000000000000000000000000000000000000000081526004018080602001828103825260188152602001807f55736572206861766520766f746564206265666f72652121000000000000000081525060200191505060405180910390fd5b60008211801561069157506003548211155b610703576040517f08c379a00000000000000000000000000000000000000000000000000000000081526004018080602001828103825260118152602001807f496e76616c69642063616e64696461746500000000000000000000000000000081525060200191505060405180910390fd5b60016000803373ffffffffffffffffffffffffffffffffffffffff1673ffffffffffffffffffffffffffffffffffffffff16815260200190815260200160002060006101000a81548160ff021916908315150217905550600180826040518082805190602001908083835b60208310610791578051825260208201915060208101905060208303925061076e565b6001836020036101000a038019825116818451168082178552505050505050905001915050908152602001604051809103902060006101000a81548160ff02191690831515021790555060026000838152602001908152602001600020600201600081548092919060010191905055505050565b60035481565b6002602052806000526040600020600091509050806000015490806001018054600181600116156101000203166002900480601f0160208091040260200160405190810160405280929190818152602001828054600181600116156101000203166002900480156108bd5780601f10610892576101008083540402835291602001916108bd565b820191906000526020600020905b8154815290600101906020018083116108a057829003601f168201915b5050505050908060020154905083565b60006060600060026000858152602001908152602001600020600001549250600260008581526020019081526020016000206001018054600181600116156101000203166002900480601f0160208091040260200160405190810160405280929190818152602001828054600181600116156101000203166002900480156109965780601f1061096b57610100808354040283529160200191610996565b820191906000526020600020905b81548152906001019060200180831161097957829003601f168201915b50505050509150600260008581526020019081526020016000206002015490509193909250565b60006001826040518082805190602001908083835b602083106109f557805182526020820191506020810190506020830392506109d2565b6001836020036101000a038019825116818451168082178552505050505050905001915050908152602001604051809103902060009054906101000a900460ff169050919050565b60048054600181600116156101000203166002900480601f016020809104026020016040519081016040528092919081815260200182805460018160011615610100020316600290048015610ad35780601f10610aa857610100808354040283529160200191610ad3565b820191906000526020600020905b815481529060010190602001808311610ab657829003601f168201915b505050505081565b60006020528060005260406000206000915054906101000a900460ff168156fea165627a7a72305820517f1de09d668539a6db00bb1d6b3a8864a5670b1c94ed034199e36eb92e5f780029",
  "source": "pragma solidity >=0.4.22  <0.7.0;\n\n//declare contract\ncontract Election {\n    //model a candidate\n    struct Candidate {\n        uint id;\n        string name;\n        uint voteCount;\n    }\n    //store accounts that have voted\n    mapping(address => bool) public voters;\n    mapping (string => bool) public voted;\n    //store candidate\n    //fetch candidate\n    mapping(uint =>Candidate) public candidates; //mapping is an associative array r a hash associative key value pairs with one another\n    //store candidates Count\n    uint public candidatesCount;\n    string public candidate;\n    //constructor\n    constructor () public {\n        addCandidate(\"Sandra Ann Sajan\");\n        addCandidate(\"Udaya Shanker M\");\n        addCandidate(\"NOTA\");\n    }\n    function getCandidate (uint _candidateId) public view returns (uint _id, string memory _name, uint _voteCount) {\n        _id = candidates[_candidateId].id;\n        _name = candidates[_candidateId].name;\n        _voteCount = candidates[_candidateId].voteCount;\n    }\n    function addCandidate (string memory _name) private { // private because not too be accessible by public interface of contract\n        candidatesCount ++;\n        candidates[candidatesCount] = Candidate({id: candidatesCount, name: _name, voteCount:0} );\n    }\n    function vote (uint _candidateId, string memory _mailId) public {\n        //user haven't voted before\n        //require(!voters[msg.sender],'User have voted before!!');\n        require(!voted[_mailId], 'User have voted before!!');\n        //valid candidate\n        require(_candidateId > 0 && _candidateId <= candidatesCount,'Invalid candidate');\n        voters[msg.sender] = true;\n        voted[_mailId] = true;\n        candidates[_candidateId].voteCount ++;\n    }\n    function hasVoted (string memory _mailId) public view returns (bool _voted) {\n        _voted = voted[_mailId];\n    }\n}",
  "sourcePath": "C:/Users/lette/Desktop/deploy/contracts/Election.sol",
  "compiler": {
    "name": "solc",
    "version": "0.5.8+commit.23d335f2.Emscripten.clang"
  },
  "schemaVersion": "3.0.11",
  "updatedAt": "2020-04-26T08:03:36.522Z",
  "devdoc": {
    "methods": {}
  },
  "userdoc": {
    "methods": {}
  }
}